{
  "_format": "hh-sol-artifact-1",
  "contractName": "Voting",
  "sourceName": "contracts/Voting.sol",
  "abi": [
    {
      "inputs": [
        {
          "internalType": "address",
          "name": "_nftAddress",
          "type": "address"
        }
      ],
      "stateMutability": "nonpayable",
      "type": "constructor"
    },
    {
      "anonymous": false,
      "inputs": [
        {
          "indexed": false,
          "internalType": "address",
          "name": "voter",
          "type": "address"
        },
        {
          "indexed": false,
          "internalType": "uint256",
          "name": "tokenId",
          "type": "uint256"
        }
      ],
      "name": "Voted",
      "type": "event"
    },
    {
      "inputs": [
        {
          "internalType": "uint256",
          "name": "",
          "type": "uint256"
        }
      ],
      "name": "hasVoted",
      "outputs": [
        {
          "internalType": "bool",
          "name": "",
          "type": "bool"
        }
      ],
      "stateMutability": "view",
      "type": "function"
    },
    {
      "inputs": [],
      "name": "nftContract",
      "outputs": [
        {
          "internalType": "contract VoteNFT",
          "name": "",
          "type": "address"
        }
      ],
      "stateMutability": "view",
      "type": "function"
    },
    {
      "inputs": [
        {
          "internalType": "address",
          "name": "",
          "type": "address"
        }
      ],
      "name": "userHasVoted",
      "outputs": [
        {
          "internalType": "bool",
          "name": "",
          "type": "bool"
        }
      ],
      "stateMutability": "view",
      "type": "function"
    },
    {
      "inputs": [
        {
          "internalType": "uint256",
          "name": "tokenId",
          "type": "uint256"
        }
      ],
      "name": "verifyAndVote",
      "outputs": [],
      "stateMutability": "nonpayable",
      "type": "function"
    },
    {
      "inputs": [],
      "name": "voteCount",
      "outputs": [
        {
          "internalType": "uint256",
          "name": "",
          "type": "uint256"
        }
      ],
      "stateMutability": "view",
      "type": "function"
    }
  ],
  "bytecode": "0x608060405234801561001057600080fd5b506040516109d83803806109d8833981810160405281019061003291906100e3565b806000806101000a81548173ffffffffffffffffffffffffffffffffffffffff021916908373ffffffffffffffffffffffffffffffffffffffff160217905550600060038190555050610110565b600080fd5b600073ffffffffffffffffffffffffffffffffffffffff82169050919050565b60006100b082610085565b9050919050565b6100c0816100a5565b81146100cb57600080fd5b50565b6000815190506100dd816100b7565b92915050565b6000602082840312156100f9576100f8610080565b5b6000610107848285016100ce565b91505092915050565b6108b98061011f6000396000f3fe608060405234801561001057600080fd5b50600436106100575760003560e01c8063032131dc1461005c5780632e2092cf1461008c578063c6384071146100a8578063d56d229d146100c6578063ecca031f146100e4575b600080fd5b610076600480360381019061007191906104ad565b610114565b60405161008391906104f5565b60405180910390f35b6100a660048036038101906100a19190610546565b610134565b005b6100b0610400565b6040516100bd9190610582565b60405180910390f35b6100ce610406565b6040516100db91906105fc565b60405180910390f35b6100fe60048036038101906100f99190610546565b61042a565b60405161010b91906104f5565b60405180910390f35b60026020528060005260406000206000915054906101000a900460ff1681565b3373ffffffffffffffffffffffffffffffffffffffff1660008054906101000a900473ffffffffffffffffffffffffffffffffffffffff1673ffffffffffffffffffffffffffffffffffffffff16636352211e836040518263ffffffff1660e01b81526004016101a49190610582565b602060405180830381865afa1580156101c1573d6000803e3d6000fd5b505050506040513d601f19601f820116820180604052508101906101e5919061062c565b73ffffffffffffffffffffffffffffffffffffffff161461023b576040517f08c379a0000000000000000000000000000000000000000000000000000000008152600401610232906106b6565b60405180910390fd5b6001600082815260200190815260200160002060009054906101000a900460ff161561029c576040517f08c379a000000000000000000000000000000000000000000000000000000000815260040161029390610748565b60405180910390fd5b600260003373ffffffffffffffffffffffffffffffffffffffff1673ffffffffffffffffffffffffffffffffffffffff16815260200190815260200160002060009054906101000a900460ff1615610329576040517f08c379a0000000000000000000000000000000000000000000000000000000008152600401610320906107b4565b60405180910390fd5b600180600083815260200190815260200160002060006101000a81548160ff0219169083151502179055506001600260003373ffffffffffffffffffffffffffffffffffffffff1673ffffffffffffffffffffffffffffffffffffffff16815260200190815260200160002060006101000a81548160ff021916908315150217905550600360008154809291906103bf90610803565b91905055507f4d99b957a2bc29a30ebd96a7be8e68fe50a3c701db28a91436490b7d53870ca433826040516103f592919061085a565b60405180910390a150565b60035481565b60008054906101000a900473ffffffffffffffffffffffffffffffffffffffff1681565b60016020528060005260406000206000915054906101000a900460ff1681565b600080fd5b600073ffffffffffffffffffffffffffffffffffffffff82169050919050565b600061047a8261044f565b9050919050565b61048a8161046f565b811461049557600080fd5b50565b6000813590506104a781610481565b92915050565b6000602082840312156104c3576104c261044a565b5b60006104d184828501610498565b91505092915050565b60008115159050919050565b6104ef816104da565b82525050565b600060208201905061050a60008301846104e6565b92915050565b6000819050919050565b61052381610510565b811461052e57600080fd5b50565b6000813590506105408161051a565b92915050565b60006020828403121561055c5761055b61044a565b5b600061056a84828501610531565b91505092915050565b61057c81610510565b82525050565b60006020820190506105976000830184610573565b92915050565b6000819050919050565b60006105c26105bd6105b88461044f565b61059d565b61044f565b9050919050565b60006105d4826105a7565b9050919050565b60006105e6826105c9565b9050919050565b6105f6816105db565b82525050565b600060208201905061061160008301846105ed565b92915050565b60008151905061062681610481565b92915050565b6000602082840312156106425761064161044a565b5b600061065084828501610617565b91505092915050565b600082825260208201905092915050565b7f566f7573206e6520706f7373c3a964657a20706173206365204e46542e000000600082015250565b60006106a0601d83610659565b91506106ab8261066a565b602082019050919050565b600060208201905081810360008301526106cf81610693565b9050919050565b7f4365204e465420612064c3a96ac3a020c3a974c3a9207574696c6973c3a9207060008201527f6f757220766f7465722e00000000000000000000000000000000000000000000602082015250565b6000610732602a83610659565b915061073d826106d6565b604082019050919050565b6000602082019050818103600083015261076181610725565b9050919050565b7f566f7573206176657a2064c3a96ac3a020766f74c3a92e000000000000000000600082015250565b600061079e601783610659565b91506107a982610768565b602082019050919050565b600060208201905081810360008301526107cd81610791565b9050919050565b7f4e487b7100000000000000000000000000000000000000000000000000000000600052601160045260246000fd5b600061080e82610510565b91507fffffffffffffffffffffffffffffffffffffffffffffffffffffffffffffffff82036108405761083f6107d4565b5b600182019050919050565b6108548161046f565b82525050565b600060408201905061086f600083018561084b565b61087c6020830184610573565b939250505056fea2646970667358221220588439d565ff10b39d95e3b0362b45c017c81aeeb83f7dd4eebd8be399e40d5b64736f6c634300081b0033",
  "linkReferences": {},
  "deployedLinkReferences": {}
}